:10000000F92FB82FB92FBA2FBC2FBD2FC22FCB2F4E
:100CC00070088312BA007108BB00BC01BD01BE01EF
:100CD000BE0A0800F40074088312031D1F150319CF
:100CE0001F110330F200F20B732E83129F149F1812
:100CF000772E1E08F601F60783161E08F501F50784
:100D00007608F3007508F20006300310F30CF20CBD
:100D1000FF3E031D852E7208F5007308F600760865
:100D2000F101F1077508F001F00708000030FC0040
:100D30000030FB000030FA000030F900701CB42EC7
:100D40007408F907750803110318013E031DFA071B
:100D5000760803110318013E031DFB0777080311F2
:100D60000318013E031DFC070130F8000310F40DC9
:100D7000F50DF60DF70DF80BB62E01300310F30C40
:100D8000F20CF10CF00CFF3E031DBE2E7308720432
:100D900071047004031D9E2E7C08F3007B08F20092
:100DA0007A08F1007908F00008008312B001AE1F44
:100DB000E02EAD09AE09AD0A0319AE0AB001B00AC2
:100DC000AC1FE72EAB09AC09AB0A0319AC0A2C081F
:100DD0002B040319142FAF01AF0AAC1BFB2E0130FB
:100DE0000310AB0DAC0DFF3E031DF02E0130FD00D6
:100DF0007D08AF07ED2E2C082E02031D012F2B08B6
:100E00002D02031C092F2B08AD022C08031CAE0376
:100E1000AE0201300310AC0CAB0CFF3E031D0A2FD9
:100E20000130AF02031DFB2E300803191C2FAD0942
:100E3000AE09AD0A0319AE0A2E08AC01AC072D08A5
:100E4000AB01AB0708008312BE08031D2C2F013035
:100E5000F0000030F100602639308312A2003030FB
:100E6000A3000030A4000030A5003D08F3003C08BA
:100E7000F2003B08F1003A08F0004130F700C630BC
:100E8000F6004E30F5006D30F4009626700883129F
:100E9000A20771080318710F4E2F4F2FA307720876
:100EA0000318720F542F552FA40773080318730AE1
:100EB000A5072508BD002408BC002308BB002208A4
:100EC000BA003A08A6003B08A7003C08A8003D0865
:100ED000A9001030AA00290DA90CA80CA70CA60C7B
:100EE000AA0B6B2FFF302605A0007F302705A1003D
:100EF0000800703083168F009F01831285018316CE
:100F000085100511051285121F121F1483129F13DD
:100F10001F131F140512F430B4000130B500003067
:100F20006A2671088312B701B7077008B601B607C1
:100F300037083502031D9E2F3608340203188F2F01
:100F40000630AB000030AC00232783122108AE012D
:100F5000AE072008AD01AD07D52683122C08B901D4
:100F6000B9072B08B801B807851205118510DB2FCA
:100F7000D62FC62F8516EB2FCF2F8516851ED82F7F
:100F80008312D62F8516851EC82F83120515EB2FC9
:100F900083120511EB2F8516851ED12F831205159F
:100FA000D32F83120511051DD82F83128514EB2F23
:100FB00083128510EB2F3908003A0319E02FEB2F2D
:100FC00038088400073004020318EB2F00308A0031
:100FD0000130040782000230B3000430B200BA309E
:100FE000B100B10BF12FB20BF12FB30BF12F0000B9
:100FF0008F2FBA01BB01BC01BD01BE018301792F56
:02400E00D5F0EB
:00000001FF
